:1000000002308A00972A00000830F8000430F70018
:10001000F70B08288711A0112008831687000330EA
:10002000F700F70B1128AA0D83120712031C1E28D4
:100030002016200883168700222883122012200809
:100040008316870000008312A015200883168700FE
:100050008312871D2928F80B06280430F700F70BB8
:100060002F288711A0112008831687000000831213
:1000700020162008831687000330F700F70B3E2870
:100080000330F700F70B42288312A01520088316CF
:1000900087008312871D4A28F8010330F700F70B09
:1000A0004F28071A78148711A0112008831687009B
:1000B000831207122012200883168700831208007B
:1000C00008308316AB007708AC0083122016200896
:1000D000831687000330F700F70B6C288312A015F6
:1000E0002008831687008312871D7428071A0314BB
:1000F000071E0310F80D0430F700F70B7D28A01140
:10010000200883168700831287118316AB0B65289E
:10011000831220162008831687000330F700F70BA0
:100120008F288312071283162C0803199C28831228
:10013000201220088316870000008312A0152008D3
:10014000831687008312871DA3280430F700F70B5E
:10015000A7288711A0112008831687000330F70015
:10016000F70BB0288312071220122008831687008D
:100170008312080083162B08AC000310AC0C7830F7
:10018000AC052C0CF700F70C3F30F70577082C076F
:10019000AD002B080F392D07F800831208000B1350
:1001A0008B138B1BD0282016200883168700043061
:1001B000F700F70BD9288312A015200883168700B3
:1001C0000330F700F70BE2288312071220122008F1
:1001D000831687000430F700F70BEC288312871191
:1001E000A011200883168700D030AA0083120420B3
:1001F00003308316AA0083120420201620088316D9
:1002000087000430F700F70B03298312A01520089C
:10021000831687000330F700F70B0C298312871D24
:100220000F29071220122008831687000430F700D8
:10023000F70B182983128711A01120088316870055
:10024000D130AA00831204200130F7006020780822
:100250007F398316A600AB008312BA207808831674
:10026000A5000130F7008312602078083F3983161B
:10027000A600AB008312BA2078088316A2000130D2
:10028000F7008312602078081F398316A600AB00A0
:100290008312BA2078088316A300F7018312602026
:1002A00078088316A600AB008312BA20780883165C
:1002B000A4008312201220088316870000008312F6
:1002C000A0152008831687008312871D6529043036
:1002D000F700F70B69296C29000020162008831607
:1002E00087000430F700F70B7329C03083128B04AA
:1002F00083162508A6000B30A700F701F801260891
:1003000003102718F707F70CF80CA718F707F70CD6
:10031000F80C2719F707F70CF80CA719F707F70CD3
:10032000F80C271AF707F70CF80CA71AF707F70CC1
:10033000F80C271BF707F70CF80CA71BF707F70CAF
:10034000F80C7808213EF800FA010318FA0A780838
:10035000A6007A08A70021088312EF008316200860
:100360008312EE0083162608840083132718831750
:1003700080080319DF29A9010408A8002910831B9C
:1003800029140008AA0083126E08840083136F18D2
:10039000831783162A088000840A80018312EE0ADC
:1003A0000319EF0A8316280884008313291883177A
:1003B000840A031DDE298312850A8316B829831255
:1003C0008A110A12522C83162708F80126020318F4
:1003D000EC292608F700F829F7010830A800A60D37
:1003E000F70D270877020318F700F80DA80BEF297F
:1003F0008312080020308316211E3030A20020080E
:10040000F700A01F0B2AF709F70A7708A0002D3084
:10041000A200A11721142008A6006430A7008312AF
:10042000E32177088316A00030307807A300200866
:10043000A6000A30A7008312E32130307707831625
:10044000A50030307807A4002208F70030302302DE
:1004500003192E2AA114A11B2115422A2208A30048
:100460002030A2003030240203193A2A2114A11BA3
:10047000A114422A031D2114031D422A2308A400AB
:100480002030A3002119492AA1184F2A2118552AE2
:100490005B2A220883120C1E4B2A9900831623081C
:1004A00083120C1E512A99008316240883120C1EF5
:1004B000572A99008316250883120C1E5D2A99007D
:1004C0000800800803197E2A8316A1010408A000F1
:1004D0002110831B2114000883120C1E6D2A990021
:1004E000831620088400831321188317840A031DB0
:1004F0007C2A8312850A83168312612A8A110A12C2
:100500009C2CA1308400831300080319942A063020
:10051000F800F701F70B8A2AF80B892A7B30F700DD
:10052000F70B902A800B872A8A110A12AF2C030836
:100530001F398300FF30A000EF01EE0181308316E8
:100540009900A63098009030831298001130F00086
:10055000F100F200F3000730F4001130F50006302E
:10056000F60083161F149F141F159F118313533019
:100570008312A1004530A2004730A300A401A501C9
:10058000A601A701A801A901AA01AB015430AC0042
:100590004530AD005230AE00AF01B001B101B20143
:1005A000B301B401B501B6015130B7005530B80000
:1005B0004130B900BA01BB01BC01BD01BE01BF01A0
:1005C000C001C1015130C2005530C3004930C400E0
:1005D000C501C601C701C801C901CA01CB01CC01CF
:1005E0005330CD004530CE005830CF00D001D1017E
:1005F000D201D301D401D501D601D7015330D8009F
:100600004130D9004230DA00DB01DC01DD01DE01DE
:10061000DF01E001E101E2014430E3004F30E4009A
:100620004D30E500E601E701C0308B040B138B135E
:100630008B1B172B20162008831687000430F70029
:10064000F70B202B8312A015200883168700033098
:10065000F700F70B292B83120712201220088316AC
:1006600087000430F700F70B332B83128711A0119A
:10067000200883168700D030AA008312042003309C
:100680008316AA00831204202016200883168700F0
:100690000430F700F70B4A2B8312A01520088316AD
:1006A00087000330F700F70B532B8312871D562B5F
:1006B000071220122008831687000430F700F70B7A
:1006C0005F2B83128711A011200883168700D13079
:1006D000AA00831204200130F700602078087F39D7
:1006E0008316A600AB008312BA207808F60001300A
:1006F000F700602078083F398316A600AB0083120C
:10070000BA207808F3000130F700602078081F391C
:100710008316A600AB008312BA207808F400F70114
:10072000602078088316A600AB008312BA207808F0
:10073000F500201220088316870000008312A01500
:100740002008831687008312871DA42B0430F7002E
:10075000F70BA82BAB2B0000201620088316870070
:100760000430F700F70BB22BC03083128B040B134D
:100770008B138B1BB82B20162008831687000430A0
:10078000F700F70BC12B8312A015200883168700F2
:100790000330F700F70BCA2B831207122012200830
:1007A000831687000430F700F70BD42B83128711D0
:1007B000A011200883168700D030AA0083120420DD
:1007C0008316AA01831204202016200883168700AE
:1007D0000430F700F70BEA2B8312A01520088316CC
:1007E00087000330F700F70BF32B8312871DF62BDE
:1007F000071220122008831687000430F700F70B39
:10080000FF2B83128711A011200883168700D13097
:10081000AA00831204200130F700602078087F3995
:100820008316A000AB008312BA207808F0000130D4
:10083000F700602078087F398316A000AB00831290
:10084000BA207808F100F701602078083F39831654
:10085000A000AB008312BA207808F2002012200812
:100860008316870000008312A015200883168700D6
:100870008312871D392C0430F700F70B3D2C402CD8
:10088000000020162008831687000430F700F70BBD
:10089000472CC03083128B048316A1017B30A0004B
:1008A0008312CF2873088316A0001830A10083128A
:1008B000FA212F300C1E5A2C990074088316A000C0
:1008C0001830A1008312FA212F300C1E652C9900DC
:1008D00075088316A0001830A1008312FA21203079
:1008E0000C1E702C990020300C1E742C990072087C
:1008F0008316A0001830A1008312FA213A300C1E92
:100900007F2C990071088316A0001830A100831273
:10091000FA213A300C1E8A2C990070088316A00028
:100920001830A1008312FA2120300C1E952C99005A
:100930007B3084008313612A20300C1E9D2C99008B
:100940000D300C1EA12C99000A300C1EA52C99000C
:1009500004308316A000FA30A1008312812A831686
:0A096000A00BAB2C8312162B6300D2
:02400E00323F3F
:00000001FF
;PIC16F877
;CRC=ADFA  CREATED="02-nov-17 22:59"
